{
  "_format": "hh-sol-artifact-1",
  "contractName": "GameStore",
  "sourceName": "contracts/GameStore.sol",
  "abi": [
    {
      "inputs": [
        {
          "internalType": "address",
          "name": "tokenAddress",
          "type": "address"
        }
      ],
      "stateMutability": "nonpayable",
      "type": "constructor"
    },
    {
      "anonymous": false,
      "inputs": [
        {
          "indexed": true,
          "internalType": "uint256",
          "name": "gameId",
          "type": "uint256"
        },
        {
          "indexed": false,
          "internalType": "uint256",
          "name": "price",
          "type": "uint256"
        }
      ],
      "name": "GameAdded",
      "type": "event"
    },
    {
      "anonymous": false,
      "inputs": [
        {
          "indexed": true,
          "internalType": "address",
          "name": "buyer",
          "type": "address"
        },
        {
          "indexed": true,
          "internalType": "uint256",
          "name": "gameId",
          "type": "uint256"
        },
        {
          "indexed": false,
          "internalType": "uint256",
          "name": "price",
          "type": "uint256"
        }
      ],
      "name": "GameBought",
      "type": "event"
    },
    {
      "anonymous": false,
      "inputs": [
        {
          "indexed": false,
          "internalType": "uint256",
          "name": "amount",
          "type": "uint256"
        }
      ],
      "name": "Withdrawn",
      "type": "event"
    },
    {
      "inputs": [
        {
          "internalType": "uint256",
          "name": "gameId",
          "type": "uint256"
        },
        {
          "internalType": "uint256",
          "name": "price",
          "type": "uint256"
        }
      ],
      "name": "addGame",
      "outputs": [],
      "stateMutability": "nonpayable",
      "type": "function"
    },
    {
      "inputs": [],
      "name": "admin",
      "outputs": [
        {
          "internalType": "address",
          "name": "",
          "type": "address"
        }
      ],
      "stateMutability": "view",
      "type": "function"
    },
    {
      "inputs": [
        {
          "internalType": "uint256",
          "name": "gameId",
          "type": "uint256"
        }
      ],
      "name": "buyGame",
      "outputs": [],
      "stateMutability": "nonpayable",
      "type": "function"
    },
    {
      "inputs": [
        {
          "internalType": "uint256",
          "name": "",
          "type": "uint256"
        }
      ],
      "name": "games",
      "outputs": [
        {
          "internalType": "uint256",
          "name": "price",
          "type": "uint256"
        },
        {
          "internalType": "bool",
          "name": "exists",
          "type": "bool"
        }
      ],
      "stateMutability": "view",
      "type": "function"
    },
    {
      "inputs": [
        {
          "internalType": "address",
          "name": "user",
          "type": "address"
        },
        {
          "internalType": "uint256",
          "name": "gameId",
          "type": "uint256"
        }
      ],
      "name": "hasAccess",
      "outputs": [
        {
          "internalType": "bool",
          "name": "",
          "type": "bool"
        }
      ],
      "stateMutability": "view",
      "type": "function"
    },
    {
      "inputs": [],
      "name": "token",
      "outputs": [
        {
          "internalType": "contract IERC20",
          "name": "",
          "type": "address"
        }
      ],
      "stateMutability": "view",
      "type": "function"
    },
    {
      "inputs": [
        {
          "internalType": "address",
          "name": "",
          "type": "address"
        },
        {
          "internalType": "uint256",
          "name": "",
          "type": "uint256"
        }
      ],
      "name": "userGames",
      "outputs": [
        {
          "internalType": "bool",
          "name": "",
          "type": "bool"
        }
      ],
      "stateMutability": "view",
      "type": "function"
    },
    {
      "inputs": [
        {
          "internalType": "uint256",
          "name": "amount",
          "type": "uint256"
        }
      ],
      "name": "withdraw",
      "outputs": [],
      "stateMutability": "nonpayable",
      "type": "function"
    }
  ],
  "bytecode": "0x60c060405234801561001057600080fd5b506040516117933803806117938339818101604052810190610032919061017a565b6001600081905550600073ffffffffffffffffffffffffffffffffffffffff168173ffffffffffffffffffffffffffffffffffffffff16036100a9576040517f08c379a00000000000000000000000000000000000000000000000000000000081526004016100a090610204565b60405180910390fd5b8073ffffffffffffffffffffffffffffffffffffffff1660808173ffffffffffffffffffffffffffffffffffffffff16815250503373ffffffffffffffffffffffffffffffffffffffff1660a08173ffffffffffffffffffffffffffffffffffffffff168152505050610224565b600080fd5b600073ffffffffffffffffffffffffffffffffffffffff82169050919050565b60006101478261011c565b9050919050565b6101578161013c565b811461016257600080fd5b50565b6000815190506101748161014e565b92915050565b6000602082840312156101905761018f610117565b5b600061019e84828501610165565b91505092915050565b600082825260208201905092915050565b7f7a65726f20746f6b656e20616464726573730000000000000000000000000000600082015250565b60006101ee6012836101a7565b91506101f9826101b8565b602082019050919050565b6000602082019050818103600083015261021d816101e1565b9050919050565b60805160a05161152761026c600039600081816101e1015281816102b50152818161035701526107ee0152600081816102d7015281816106e2015261081201526115276000f3fe608060405234801561001057600080fd5b50600436106100885760003560e01c8063c6530e411161005b578063c6530e4114610126578063f776051714610156578063f851a44014610172578063fc0c546a1461019057610088565b8063117a5b901461008d5780632e1a7d4d146100be5780638065d77e146100da578063bc0167cd146100f6575b600080fd5b6100a760048036038101906100a29190610c6c565b6101ae565b6040516100b5929190610cc3565b60405180910390f35b6100d860048036038101906100d39190610c6c565b6101df565b005b6100f460048036038101906100ef9190610cec565b610355565b005b610110600480360381019061010b9190610d8a565b61051e565b60405161011d9190610dca565b60405180910390f35b610140600480360381019061013b9190610d8a565b61054d565b60405161014d9190610dca565b60405180910390f35b610170600480360381019061016b9190610c6c565b6105b5565b005b61017a6107ec565b6040516101879190610df4565b60405180910390f35b610198610810565b6040516101a59190610e6e565b60405180910390f35b60016020528060005260406000206000915090508060000154908060010160009054906101000a900460ff16905082565b7f000000000000000000000000000000000000000000000000000000000000000073ffffffffffffffffffffffffffffffffffffffff163373ffffffffffffffffffffffffffffffffffffffff161461026d576040517f08c379a000000000000000000000000000000000000000000000000000000000815260040161026490610ee6565b60405180910390fd5b600081116102b0576040517f08c379a00000000000000000000000000000000000000000000000000000000081526004016102a790610f52565b60405180910390fd5b61031b7f0000000000000000000000000000000000000000000000000000000000000000827f000000000000000000000000000000000000000000000000000000000000000073ffffffffffffffffffffffffffffffffffffffff166108349092919063ffffffff16565b7f430648de173157e069201c943adb2d4e340e7cf5b27b1b09c9cb852f03d63b568160405161034a9190610f72565b60405180910390a150565b7f000000000000000000000000000000000000000000000000000000000000000073ffffffffffffffffffffffffffffffffffffffff163373ffffffffffffffffffffffffffffffffffffffff16146103e3576040517f08c379a00000000000000000000000000000000000000000000000000000000081526004016103da90610ee6565b60405180910390fd5b60008111610426576040517f08c379a000000000000000000000000000000000000000000000000000000000815260040161041d90610fd9565b60405180910390fd5b6001600083815260200190815260200160002060010160009054906101000a900460ff161561048a576040517f08c379a000000000000000000000000000000000000000000000000000000000815260040161048190611045565b60405180910390fd5b604051806040016040528082815260200160011515815250600160008481526020019081526020016000206000820151816000015560208201518160010160006101000a81548160ff021916908315150217905550905050817f631d02c7a08d5bb170d4a353ae2ba5425cc79bdf10c0b1380b6b7b48c88774dc826040516105129190610f72565b60405180910390a25050565b60026020528160005260406000206020528060005260406000206000915091509054906101000a900460ff1681565b6000600260008473ffffffffffffffffffffffffffffffffffffffff1673ffffffffffffffffffffffffffffffffffffffff168152602001908152602001600020600083815260200190815260200160002060009054906101000a900460ff16905092915050565b806001600082815260200190815260200160002060010160009054906101000a900460ff16610619576040517f08c379a0000000000000000000000000000000000000000000000000000000008152600401610610906110b1565b60405180910390fd5b6106216108ba565b600260003373ffffffffffffffffffffffffffffffffffffffff1673ffffffffffffffffffffffffffffffffffffffff168152602001908152602001600020600083815260200190815260200160002060009054906101000a900460ff16156106bf576040517f08c379a00000000000000000000000000000000000000000000000000000000081526004016106b69061111d565b60405180910390fd5b6000600160008481526020019081526020016000206000015490506107273330837f000000000000000000000000000000000000000000000000000000000000000073ffffffffffffffffffffffffffffffffffffffff16610909909392919063ffffffff16565b6001600260003373ffffffffffffffffffffffffffffffffffffffff1673ffffffffffffffffffffffffffffffffffffffff168152602001908152602001600020600085815260200190815260200160002060006101000a81548160ff021916908315150217905550823373ffffffffffffffffffffffffffffffffffffffff167f2f10445408f98037db3b8cb9284971437981c6b22fcbc65520c84657e003eb49836040516107d79190610f72565b60405180910390a3506107e8610992565b5050565b7f000000000000000000000000000000000000000000000000000000000000000081565b7f000000000000000000000000000000000000000000000000000000000000000081565b6108b58363a9059cbb60e01b848460405160240161085392919061113d565b604051602081830303815290604052907bffffffffffffffffffffffffffffffffffffffffffffffffffffffff19166020820180517bffffffffffffffffffffffffffffffffffffffffffffffffffffffff838183161783525050505061099c565b505050565b6002600054036108ff576040517f08c379a00000000000000000000000000000000000000000000000000000000081526004016108f6906111b2565b60405180910390fd5b6002600081905550565b61098c846323b872dd60e01b85858560405160240161092a939291906111d2565b604051602081830303815290604052907bffffffffffffffffffffffffffffffffffffffffffffffffffffffff19166020820180517bffffffffffffffffffffffffffffffffffffffffffffffffffffffff838183161783525050505061099c565b50505050565b6001600081905550565b60006109fe826040518060400160405280602081526020017f5361666545524332303a206c6f772d6c6576656c2063616c6c206661696c65648152508573ffffffffffffffffffffffffffffffffffffffff16610a649092919063ffffffff16565b9050600081511480610a20575080806020019051810190610a1f9190611235565b5b610a5f576040517f08c379a0000000000000000000000000000000000000000000000000000000008152600401610a56906112d4565b60405180910390fd5b505050565b6060610a738484600085610a7c565b90509392505050565b606082471015610ac1576040517f08c379a0000000000000000000000000000000000000000000000000000000008152600401610ab890611366565b60405180910390fd5b6000808673ffffffffffffffffffffffffffffffffffffffff168587604051610aea91906113f7565b60006040518083038185875af1925050503d8060008114610b27576040519150601f19603f3d011682016040523d82523d6000602084013e610b2c565b606091505b5091509150610b3d87838387610b49565b92505050949350505050565b60608315610bab576000835103610ba357610b6385610bbe565b610ba2576040517f08c379a0000000000000000000000000000000000000000000000000000000008152600401610b999061145a565b60405180910390fd5b5b829050610bb6565b610bb58383610be1565b5b949350505050565b6000808273ffffffffffffffffffffffffffffffffffffffff163b119050919050565b600082511115610bf45781518083602001fd5b806040517f08c379a0000000000000000000000000000000000000000000000000000000008152600401610c2891906114cf565b60405180910390fd5b600080fd5b6000819050919050565b610c4981610c36565b8114610c5457600080fd5b50565b600081359050610c6681610c40565b92915050565b600060208284031215610c8257610c81610c31565b5b6000610c9084828501610c57565b91505092915050565b610ca281610c36565b82525050565b60008115159050919050565b610cbd81610ca8565b82525050565b6000604082019050610cd86000830185610c99565b610ce56020830184610cb4565b9392505050565b60008060408385031215610d0357610d02610c31565b5b6000610d1185828601610c57565b9250506020610d2285828601610c57565b9150509250929050565b600073ffffffffffffffffffffffffffffffffffffffff82169050919050565b6000610d5782610d2c565b9050919050565b610d6781610d4c565b8114610d7257600080fd5b50565b600081359050610d8481610d5e565b92915050565b60008060408385031215610da157610da0610c31565b5b6000610daf85828601610d75565b9250506020610dc085828601610c57565b9150509250929050565b6000602082019050610ddf6000830184610cb4565b92915050565b610dee81610d4c565b82525050565b6000602082019050610e096000830184610de5565b92915050565b6000819050919050565b6000610e34610e2f610e2a84610d2c565b610e0f565b610d2c565b9050919050565b6000610e4682610e19565b9050919050565b6000610e5882610e3b565b9050919050565b610e6881610e4d565b82525050565b6000602082019050610e836000830184610e5f565b92915050565b600082825260208201905092915050565b7f6f6e6c792061646d696e00000000000000000000000000000000000000000000600082015250565b6000610ed0600a83610e89565b9150610edb82610e9a565b602082019050919050565b60006020820190508181036000830152610eff81610ec3565b9050919050565b7f696e76616c696420616d6f756e74000000000000000000000000000000000000600082015250565b6000610f3c600e83610e89565b9150610f4782610f06565b602082019050919050565b60006020820190508181036000830152610f6b81610f2f565b9050919050565b6000602082019050610f876000830184610c99565b92915050565b7f696e76616c696420707269636500000000000000000000000000000000000000600082015250565b6000610fc3600d83610e89565b9150610fce82610f8d565b602082019050919050565b60006020820190508181036000830152610ff281610fb6565b9050919050565b7f616c726561647920657869737473000000000000000000000000000000000000600082015250565b600061102f600e83610e89565b915061103a82610ff9565b602082019050919050565b6000602082019050818103600083015261105e81611022565b9050919050565b7f67616d65206e6f7420666f756e64000000000000000000000000000000000000600082015250565b600061109b600e83610e89565b91506110a682611065565b602082019050919050565b600060208201905081810360008301526110ca8161108e565b9050919050565b7f616c726561647920707572636861736564000000000000000000000000000000600082015250565b6000611107601183610e89565b9150611112826110d1565b602082019050919050565b60006020820190508181036000830152611136816110fa565b9050919050565b60006040820190506111526000830185610de5565b61115f6020830184610c99565b9392505050565b7f5265656e7472616e637947756172643a207265656e7472616e742063616c6c00600082015250565b600061119c601f83610e89565b91506111a782611166565b602082019050919050565b600060208201905081810360008301526111cb8161118f565b9050919050565b60006060820190506111e76000830186610de5565b6111f46020830185610de5565b6112016040830184610c99565b949350505050565b61121281610ca8565b811461121d57600080fd5b50565b60008151905061122f81611209565b92915050565b60006020828403121561124b5761124a610c31565b5b600061125984828501611220565b91505092915050565b7f5361666545524332303a204552433230206f7065726174696f6e20646964206e60008201527f6f74207375636365656400000000000000000000000000000000000000000000602082015250565b60006112be602a83610e89565b91506112c982611262565b604082019050919050565b600060208201905081810360008301526112ed816112b1565b9050919050565b7f416464726573733a20696e73756666696369656e742062616c616e636520666f60008201527f722063616c6c0000000000000000000000000000000000000000000000000000602082015250565b6000611350602683610e89565b915061135b826112f4565b604082019050919050565b6000602082019050818103600083015261137f81611343565b9050919050565b600081519050919050565b600081905092915050565b60005b838110156113ba57808201518184015260208101905061139f565b60008484015250505050565b60006113d182611386565b6113db8185611391565b93506113eb81856020860161139c565b80840191505092915050565b600061140382846113c6565b915081905092915050565b7f416464726573733a2063616c6c20746f206e6f6e2d636f6e7472616374000000600082015250565b6000611444601d83610e89565b915061144f8261140e565b602082019050919050565b6000602082019050818103600083015261147381611437565b9050919050565b600081519050919050565b6000601f19601f8301169050919050565b60006114a18261147a565b6114ab8185610e89565b93506114bb81856020860161139c565b6114c481611485565b840191505092915050565b600060208201905081810360008301526114e98184611496565b90509291505056fea264697066735822122059d316127711454cce2af26467cb1987511973d7a7aced26938ee974f6f7eef964736f6c634300081c0033",
  "linkReferences": {},
  "deployedLinkReferences": {}
}