{
  "_format": "hh-sol-artifact-1",
  "contractName": "GameToken",
  "sourceName": "contracts/GameToken.sol",
  "abi": [
    {
      "inputs": [],
      "stateMutability": "nonpayable",
      "type": "constructor"
    },
    {
      "anonymous": false,
      "inputs": [
        {
          "indexed": true,
          "internalType": "address",
          "name": "owner",
          "type": "address"
        },
        {
          "indexed": true,
          "internalType": "address",
          "name": "spender",
          "type": "address"
        },
        {
          "indexed": false,
          "internalType": "uint256",
          "name": "value",
          "type": "uint256"
        }
      ],
      "name": "Approval",
      "type": "event"
    },
    {
      "anonymous": false,
      "inputs": [
        {
          "indexed": true,
          "internalType": "address",
          "name": "from",
          "type": "address"
        },
        {
          "indexed": true,
          "internalType": "address",
          "name": "to",
          "type": "address"
        },
        {
          "indexed": false,
          "internalType": "uint256",
          "name": "value",
          "type": "uint256"
        }
      ],
      "name": "Transfer",
      "type": "event"
    },
    {
      "inputs": [],
      "name": "MAX_SUPPLY",
      "outputs": [
        {
          "internalType": "uint256",
          "name": "",
          "type": "uint256"
        }
      ],
      "stateMutability": "view",
      "type": "function"
    },
    {
      "inputs": [],
      "name": "admin",
      "outputs": [
        {
          "internalType": "address",
          "name": "",
          "type": "address"
        }
      ],
      "stateMutability": "view",
      "type": "function"
    },
    {
      "inputs": [
        {
          "internalType": "address",
          "name": "owner",
          "type": "address"
        },
        {
          "internalType": "address",
          "name": "spender",
          "type": "address"
        }
      ],
      "name": "allowance",
      "outputs": [
        {
          "internalType": "uint256",
          "name": "",
          "type": "uint256"
        }
      ],
      "stateMutability": "view",
      "type": "function"
    },
    {
      "inputs": [
        {
          "internalType": "address",
          "name": "spender",
          "type": "address"
        },
        {
          "internalType": "uint256",
          "name": "amount",
          "type": "uint256"
        }
      ],
      "name": "approve",
      "outputs": [
        {
          "internalType": "bool",
          "name": "",
          "type": "bool"
        }
      ],
      "stateMutability": "nonpayable",
      "type": "function"
    },
    {
      "inputs": [
        {
          "internalType": "address",
          "name": "account",
          "type": "address"
        }
      ],
      "name": "balanceOf",
      "outputs": [
        {
          "internalType": "uint256",
          "name": "",
          "type": "uint256"
        }
      ],
      "stateMutability": "view",
      "type": "function"
    },
    {
      "inputs": [],
      "name": "decimals",
      "outputs": [
        {
          "internalType": "uint8",
          "name": "",
          "type": "uint8"
        }
      ],
      "stateMutability": "view",
      "type": "function"
    },
    {
      "inputs": [
        {
          "internalType": "address",
          "name": "spender",
          "type": "address"
        },
        {
          "internalType": "uint256",
          "name": "subtractedValue",
          "type": "uint256"
        }
      ],
      "name": "decreaseAllowance",
      "outputs": [
        {
          "internalType": "bool",
          "name": "",
          "type": "bool"
        }
      ],
      "stateMutability": "nonpayable",
      "type": "function"
    },
    {
      "inputs": [
        {
          "internalType": "address",
          "name": "spender",
          "type": "address"
        },
        {
          "internalType": "uint256",
          "name": "addedValue",
          "type": "uint256"
        }
      ],
      "name": "increaseAllowance",
      "outputs": [
        {
          "internalType": "bool",
          "name": "",
          "type": "bool"
        }
      ],
      "stateMutability": "nonpayable",
      "type": "function"
    },
    {
      "inputs": [
        {
          "internalType": "address",
          "name": "to",
          "type": "address"
        },
        {
          "internalType": "uint256",
          "name": "amount",
          "type": "uint256"
        }
      ],
      "name": "mint",
      "outputs": [],
      "stateMutability": "nonpayable",
      "type": "function"
    },
    {
      "inputs": [],
      "name": "name",
      "outputs": [
        {
          "internalType": "string",
          "name": "",
          "type": "string"
        }
      ],
      "stateMutability": "view",
      "type": "function"
    },
    {
      "inputs": [],
      "name": "symbol",
      "outputs": [
        {
          "internalType": "string",
          "name": "",
          "type": "string"
        }
      ],
      "stateMutability": "view",
      "type": "function"
    },
    {
      "inputs": [],
      "name": "totalSupply",
      "outputs": [
        {
          "internalType": "uint256",
          "name": "",
          "type": "uint256"
        }
      ],
      "stateMutability": "view",
      "type": "function"
    },
    {
      "inputs": [
        {
          "internalType": "address",
          "name": "to",
          "type": "address"
        },
        {
          "internalType": "uint256",
          "name": "amount",
          "type": "uint256"
        }
      ],
      "name": "transfer",
      "outputs": [
        {
          "internalType": "bool",
          "name": "",
          "type": "bool"
        }
      ],
      "stateMutability": "nonpayable",
      "type": "function"
    },
    {
      "inputs": [
        {
          "internalType": "address",
          "name": "from",
          "type": "address"
        },
        {
          "internalType": "address",
          "name": "to",
          "type": "address"
        },
        {
          "internalType": "uint256",
          "name": "amount",
          "type": "uint256"
        }
      ],
      "name": "transferFrom",
      "outputs": [
        {
          "internalType": "bool",
          "name": "",
          "type": "bool"
        }
      ],
      "stateMutability": "nonpayable",
      "type": "function"
    }
  ],
  "bytecode": "0x60a060405234801561001057600080fd5b506040518060400160405280600981526020017f47616d65546f6b656e00000000000000000000000000000000000000000000008152506040518060400160405280600381526020017f47414d0000000000000000000000000000000000000000000000000000000000815250816003908161008c91906104af565b50806004908161009c91906104af565b5050503373ffffffffffffffffffffffffffffffffffffffff1660808173ffffffffffffffffffffffffffffffffffffffff16815250506100ee608051683635c9adc5dea000006100f360201b60201c565b61068b565b600073ffffffffffffffffffffffffffffffffffffffff168273ffffffffffffffffffffffffffffffffffffffff1603610162576040517f08c379a0000000000000000000000000000000000000000000000000000000008152600401610159906105de565b60405180910390fd5b6101746000838361025560201b60201c565b8060026000828254610186919061062d565b92505081905550806000808473ffffffffffffffffffffffffffffffffffffffff1673ffffffffffffffffffffffffffffffffffffffff168152602001908152602001600020600082825401925050819055508173ffffffffffffffffffffffffffffffffffffffff16600073ffffffffffffffffffffffffffffffffffffffff167fddf252ad1be2c89b69c2b068fc378daa952ba7f163c4a11628f55a4df523b3ef836040516102379190610670565b60405180910390a36102516000838361025a60201b60201c565b5050565b505050565b505050565b600081519050919050565b7f4e487b7100000000000000000000000000000000000000000000000000000000600052604160045260246000fd5b7f4e487b7100000000000000000000000000000000000000000000000000000000600052602260045260246000fd5b600060028204905060018216806102e057607f821691505b6020821081036102f3576102f2610299565b5b50919050565b60008190508160005260206000209050919050565b60006020601f8301049050919050565b600082821b905092915050565b60006008830261035b7fffffffffffffffffffffffffffffffffffffffffffffffffffffffffffffffff8261031e565b610365868361031e565b95508019841693508086168417925050509392505050565b6000819050919050565b6000819050919050565b60006103ac6103a76103a28461037d565b610387565b61037d565b9050919050565b6000819050919050565b6103c683610391565b6103da6103d2826103b3565b84845461032b565b825550505050565b600090565b6103ef6103e2565b6103fa8184846103bd565b505050565b5b8181101561041e576104136000826103e7565b600181019050610400565b5050565b601f82111561046357610434816102f9565b61043d8461030e565b8101602085101561044c578190505b6104606104588561030e565b8301826103ff565b50505b505050565b600082821c905092915050565b600061048660001984600802610468565b1980831691505092915050565b600061049f8383610475565b9150826002028217905092915050565b6104b88261025f565b67ffffffffffffffff8111156104d1576104d061026a565b5b6104db82546102c8565b6104e6828285610422565b600060209050601f8311600181146105195760008415610507578287015190505b6105118582610493565b865550610579565b601f198416610527866102f9565b60005b8281101561054f5784890151825560018201915060208501945060208101905061052a565b8683101561056c5784890151610568601f891682610475565b8355505b6001600288020188555050505b505050505050565b600082825260208201905092915050565b7f45524332303a206d696e7420746f20746865207a65726f206164647265737300600082015250565b60006105c8601f83610581565b91506105d382610592565b602082019050919050565b600060208201905081810360008301526105f7816105bb565b9050919050565b7f4e487b7100000000000000000000000000000000000000000000000000000000600052601160045260246000fd5b60006106388261037d565b91506106438361037d565b925082820190508082111561065b5761065a6105fe565b5b92915050565b61066a8161037d565b82525050565b60006020820190506106856000830184610661565b92915050565b6080516116b96106ad6000396000818161044d015261074301526116b96000f3fe608060405234801561001057600080fd5b50600436106100ea5760003560e01c806340c10f191161008c578063a457c2d711610066578063a457c2d714610261578063a9059cbb14610291578063dd62ed3e146102c1578063f851a440146102f1576100ea565b806340c10f19146101f757806370a082311461021357806395d89b4114610243576100ea565b806323b872dd116100c857806323b872dd1461015b578063313ce5671461018b57806332cb6b0c146101a957806339509351146101c7576100ea565b806306fdde03146100ef578063095ea7b31461010d57806318160ddd1461013d575b600080fd5b6100f761030f565b6040516101049190610e28565b60405180910390f35b61012760048036038101906101229190610ee3565b6103a1565b6040516101349190610f3e565b60405180910390f35b6101456103c4565b6040516101529190610f68565b60405180910390f35b61017560048036038101906101709190610f83565b6103ce565b6040516101829190610f3e565b60405180910390f35b6101936103fd565b6040516101a09190610ff2565b60405180910390f35b6101b1610406565b6040516101be9190610f68565b60405180910390f35b6101e160048036038101906101dc9190610ee3565b610414565b6040516101ee9190610f3e565b60405180910390f35b610211600480360381019061020c9190610ee3565b61044b565b005b61022d6004803603810190610228919061100d565b610546565b60405161023a9190610f68565b60405180910390f35b61024b61058e565b6040516102589190610e28565b60405180910390f35b61027b60048036038101906102769190610ee3565b610620565b6040516102889190610f3e565b60405180910390f35b6102ab60048036038101906102a69190610ee3565b610697565b6040516102b89190610f3e565b60405180910390f35b6102db60048036038101906102d6919061103a565b6106ba565b6040516102e89190610f68565b60405180910390f35b6102f9610741565b6040516103069190611089565b60405180910390f35b60606003805461031e906110d3565b80601f016020809104026020016040519081016040528092919081815260200182805461034a906110d3565b80156103975780601f1061036c57610100808354040283529160200191610397565b820191906000526020600020905b81548152906001019060200180831161037a57829003601f168201915b5050505050905090565b6000806103ac610765565b90506103b981858561076d565b600191505092915050565b6000600254905090565b6000806103d9610765565b90506103e6858285610936565b6103f18585856109c2565b60019150509392505050565b60006012905090565b69021e19e0c9bab240000081565b60008061041f610765565b905061044081858561043185896106ba565b61043b9190611133565b61076d565b600191505092915050565b7f000000000000000000000000000000000000000000000000000000000000000073ffffffffffffffffffffffffffffffffffffffff163373ffffffffffffffffffffffffffffffffffffffff16146104d9576040517f08c379a00000000000000000000000000000000000000000000000000000000081526004016104d0906111b3565b60405180910390fd5b69021e19e0c9bab2400000816104ed6103c4565b6104f79190611133565b1115610538576040517f08c379a000000000000000000000000000000000000000000000000000000000815260040161052f9061121f565b60405180910390fd5b6105428282610c38565b5050565b60008060008373ffffffffffffffffffffffffffffffffffffffff1673ffffffffffffffffffffffffffffffffffffffff168152602001908152602001600020549050919050565b60606004805461059d906110d3565b80601f01602080910402602001604051908101604052809291908181526020018280546105c9906110d3565b80156106165780601f106105eb57610100808354040283529160200191610616565b820191906000526020600020905b8154815290600101906020018083116105f957829003601f168201915b5050505050905090565b60008061062b610765565b9050600061063982866106ba565b90508381101561067e576040517f08c379a0000000000000000000000000000000000000000000000000000000008152600401610675906112b1565b60405180910390fd5b61068b828686840361076d565b60019250505092915050565b6000806106a2610765565b90506106af8185856109c2565b600191505092915050565b6000600160008473ffffffffffffffffffffffffffffffffffffffff1673ffffffffffffffffffffffffffffffffffffffff16815260200190815260200160002060008373ffffffffffffffffffffffffffffffffffffffff1673ffffffffffffffffffffffffffffffffffffffff16815260200190815260200160002054905092915050565b7f000000000000000000000000000000000000000000000000000000000000000081565b600033905090565b600073ffffffffffffffffffffffffffffffffffffffff168373ffffffffffffffffffffffffffffffffffffffff16036107dc576040517f08c379a00000000000000000000000000000000000000000000000000000000081526004016107d390611343565b60405180910390fd5b600073ffffffffffffffffffffffffffffffffffffffff168273ffffffffffffffffffffffffffffffffffffffff160361084b576040517f08c379a0000000000000000000000000000000000000000000000000000000008152600401610842906113d5565b60405180910390fd5b80600160008573ffffffffffffffffffffffffffffffffffffffff1673ffffffffffffffffffffffffffffffffffffffff16815260200190815260200160002060008473ffffffffffffffffffffffffffffffffffffffff1673ffffffffffffffffffffffffffffffffffffffff168152602001908152602001600020819055508173ffffffffffffffffffffffffffffffffffffffff168373ffffffffffffffffffffffffffffffffffffffff167f8c5be1e5ebec7d5bd14f71427d1e84f3dd0314c0f7b2291e5b200ac8c7c3b925836040516109299190610f68565b60405180910390a3505050565b600061094284846106ba565b90507fffffffffffffffffffffffffffffffffffffffffffffffffffffffffffffffff81146109bc57818110156109ae576040517f08c379a00000000000000000000000000000000000000000000000000000000081526004016109a590611441565b60405180910390fd5b6109bb848484840361076d565b5b50505050565b600073ffffffffffffffffffffffffffffffffffffffff168373ffffffffffffffffffffffffffffffffffffffff1603610a31576040517f08c379a0000000000000000000000000000000000000000000000000000000008152600401610a28906114d3565b60405180910390fd5b600073ffffffffffffffffffffffffffffffffffffffff168273ffffffffffffffffffffffffffffffffffffffff1603610aa0576040517f08c379a0000000000000000000000000000000000000000000000000000000008152600401610a9790611565565b60405180910390fd5b610aab838383610d8e565b60008060008573ffffffffffffffffffffffffffffffffffffffff1673ffffffffffffffffffffffffffffffffffffffff16815260200190815260200160002054905081811015610b31576040517f08c379a0000000000000000000000000000000000000000000000000000000008152600401610b28906115f7565b60405180910390fd5b8181036000808673ffffffffffffffffffffffffffffffffffffffff1673ffffffffffffffffffffffffffffffffffffffff16815260200190815260200160002081905550816000808573ffffffffffffffffffffffffffffffffffffffff1673ffffffffffffffffffffffffffffffffffffffff168152602001908152602001600020600082825401925050819055508273ffffffffffffffffffffffffffffffffffffffff168473ffffffffffffffffffffffffffffffffffffffff167fddf252ad1be2c89b69c2b068fc378daa952ba7f163c4a11628f55a4df523b3ef84604051610c1f9190610f68565b60405180910390a3610c32848484610d93565b50505050565b600073ffffffffffffffffffffffffffffffffffffffff168273ffffffffffffffffffffffffffffffffffffffff1603610ca7576040517f08c379a0000000000000000000000000000000000000000000000000000000008152600401610c9e90611663565b60405180910390fd5b610cb360008383610d8e565b8060026000828254610cc59190611133565b92505081905550806000808473ffffffffffffffffffffffffffffffffffffffff1673ffffffffffffffffffffffffffffffffffffffff168152602001908152602001600020600082825401925050819055508173ffffffffffffffffffffffffffffffffffffffff16600073ffffffffffffffffffffffffffffffffffffffff167fddf252ad1be2c89b69c2b068fc378daa952ba7f163c4a11628f55a4df523b3ef83604051610d769190610f68565b60405180910390a3610d8a60008383610d93565b5050565b505050565b505050565b600081519050919050565b600082825260208201905092915050565b60005b83811015610dd2578082015181840152602081019050610db7565b60008484015250505050565b6000601f19601f8301169050919050565b6000610dfa82610d98565b610e048185610da3565b9350610e14818560208601610db4565b610e1d81610dde565b840191505092915050565b60006020820190508181036000830152610e428184610def565b905092915050565b600080fd5b600073ffffffffffffffffffffffffffffffffffffffff82169050919050565b6000610e7a82610e4f565b9050919050565b610e8a81610e6f565b8114610e9557600080fd5b50565b600081359050610ea781610e81565b92915050565b6000819050919050565b610ec081610ead565b8114610ecb57600080fd5b50565b600081359050610edd81610eb7565b92915050565b60008060408385031215610efa57610ef9610e4a565b5b6000610f0885828601610e98565b9250506020610f1985828601610ece565b9150509250929050565b60008115159050919050565b610f3881610f23565b82525050565b6000602082019050610f536000830184610f2f565b92915050565b610f6281610ead565b82525050565b6000602082019050610f7d6000830184610f59565b92915050565b600080600060608486031215610f9c57610f9b610e4a565b5b6000610faa86828701610e98565b9350506020610fbb86828701610e98565b9250506040610fcc86828701610ece565b9150509250925092565b600060ff82169050919050565b610fec81610fd6565b82525050565b60006020820190506110076000830184610fe3565b92915050565b60006020828403121561102357611022610e4a565b5b600061103184828501610e98565b91505092915050565b6000806040838503121561105157611050610e4a565b5b600061105f85828601610e98565b925050602061107085828601610e98565b9150509250929050565b61108381610e6f565b82525050565b600060208201905061109e600083018461107a565b92915050565b7f4e487b7100000000000000000000000000000000000000000000000000000000600052602260045260246000fd5b600060028204905060018216806110eb57607f821691505b6020821081036110fe576110fd6110a4565b5b50919050565b7f4e487b7100000000000000000000000000000000000000000000000000000000600052601160045260246000fd5b600061113e82610ead565b915061114983610ead565b925082820190508082111561116157611160611104565b5b92915050565b7f6f6e6c792061646d696e00000000000000000000000000000000000000000000600082015250565b600061119d600a83610da3565b91506111a882611167565b602082019050919050565b600060208201905081810360008301526111cc81611190565b9050919050565b7f6d617820737570706c7920657863656564656400000000000000000000000000600082015250565b6000611209601383610da3565b9150611214826111d3565b602082019050919050565b60006020820190508181036000830152611238816111fc565b9050919050565b7f45524332303a2064656372656173656420616c6c6f77616e63652062656c6f7760008201527f207a65726f000000000000000000000000000000000000000000000000000000602082015250565b600061129b602583610da3565b91506112a68261123f565b604082019050919050565b600060208201905081810360008301526112ca8161128e565b9050919050565b7f45524332303a20617070726f76652066726f6d20746865207a65726f2061646460008201527f7265737300000000000000000000000000000000000000000000000000000000602082015250565b600061132d602483610da3565b9150611338826112d1565b604082019050919050565b6000602082019050818103600083015261135c81611320565b9050919050565b7f45524332303a20617070726f766520746f20746865207a65726f20616464726560008201527f7373000000000000000000000000000000000000000000000000000000000000602082015250565b60006113bf602283610da3565b91506113ca82611363565b604082019050919050565b600060208201905081810360008301526113ee816113b2565b9050919050565b7f45524332303a20696e73756666696369656e7420616c6c6f77616e6365000000600082015250565b600061142b601d83610da3565b9150611436826113f5565b602082019050919050565b6000602082019050818103600083015261145a8161141e565b9050919050565b7f45524332303a207472616e736665722066726f6d20746865207a65726f20616460008201527f6472657373000000000000000000000000000000000000000000000000000000602082015250565b60006114bd602583610da3565b91506114c882611461565b604082019050919050565b600060208201905081810360008301526114ec816114b0565b9050919050565b7f45524332303a207472616e7366657220746f20746865207a65726f206164647260008201527f6573730000000000000000000000000000000000000000000000000000000000602082015250565b600061154f602383610da3565b915061155a826114f3565b604082019050919050565b6000602082019050818103600083015261157e81611542565b9050919050565b7f45524332303a207472616e7366657220616d6f756e742065786365656473206260008201527f616c616e63650000000000000000000000000000000000000000000000000000602082015250565b60006115e1602683610da3565b91506115ec82611585565b604082019050919050565b60006020820190508181036000830152611610816115d4565b9050919050565b7f45524332303a206d696e7420746f20746865207a65726f206164647265737300600082015250565b600061164d601f83610da3565b915061165882611617565b602082019050919050565b6000602082019050818103600083015261167c81611640565b905091905056fea2646970667358221220d4da4e2a3065585f36088d2eac89fde8df05476400d4e464ea215d35bd5679d964736f6c634300081c0033",
  "linkReferences": {},
  "deployedLinkReferences": {}
}